:020000040800F2
:1000000000800120712D0008312C0008372C0008D9
:100010003D2C0008432C0008492C0008000000007B
:100020000000000000000000000000004F2C00084D
:100030005D2C0008000000006B2C0008792C0008E3
:10004000C12D0008C12D0008C12D0008C12D0008D8
:10005000C12D0008C12D0008C12D0008C12D0008C8
:10006000C12D0008C12D0008C12D0008C12D0008B8
:10007000C12D0008C12D0008C12D0008C12D0008A8
:10008000C12D0008C12D0008C12D0008000000008E
:10009000000000000000000000000000852C0008A7
:1000A000C12D0008C12D0008C12D0008C12D000878
:1000B000C12D00089D2C0008C12D0008C12D00088D
:1000C000C12D0008C12D0008C12D0008C12D000858
:1000D000C12D0008C12D0008C12D0008000000003E
:1000E000B12C0008C12D0008C12D0008000000003F
:1000F000000000000000000000000000C12D00080A
:1001000000000000C12D0008C12D0008C12D00080D
:1001100000000000000000000000000000000000DF
:10012000C12D0008C12D0008C12D0008C12D0008F7
:10013000C12D0008000000000000000000000000C9
:10014000000000000000000000000000C12D0008B9
:10015000C12D0008C12D0008C12D0008C12D0008C7
:10016000C12D0008C12D00080000000000000000A3
:10017000000000000000000000000000000000007F
:1001800000000000C12D0008000000000000000079
:04019000C12D000875
:1001A00010B5054C237833B9044B13B10448AFF3B1
:1001B00000800123237010BD8C000020000000008F
:1001C0002C60000808B5034B1BB103490348AFF38B
:1001D000008008BD00000000900000202C60000896
:1001E000034613F8012B002AFBD1181A0138704777
:1001F00001F0FF01102A2BDB10F0070F08D010F8D8
:10020000013B013A8B422DD010F0070F42B3F6D1DB
:10021000F0B441EA012141EA014122F007047FF0F4
:1002200000070023F0E80256083C85EA010586EA4B
:10023000010685FA47F5A3FA87F586FA47F6A5FA87
:1002400087F68EB9EED1F0BC01F0FF0102F0070293
:1002500032B110F8013B013A83EA010313B1F8D13E
:100260000020704701387047002D06BF354603381F
:10027000073815F0010F07D1013015F4807F02BF58
:10028000013015F4C03F0130F0BC0138704700BFA9
:1002900081F0004102E000BF83F0004330B54FEA37
:1002A00041044FEA430594EA050F08BF90EA020FA4
:1002B0001FBF54EA000C55EA020C7FEA645C7FEA37
:1002C000655C00F0E2804FEA5454D4EB5555B8BF5A
:1002D0006D420CDD2C4480EA020281EA030382EACB
:1002E000000083EA010180EA020281EA0303362D5D
:1002F00088BF30BD11F0004F4FEA01314FF4801C30
:100300004CEA113102D0404261EB410113F0004F41
:100310004FEA03334CEA133302D0524263EB4303F8
:1003200094EA050F00F0A780A4F10104D5F1200E96
:100330000DDB02FA0EFC22FA05F2801841F10001F1
:1003400003FA0EF2801843FA05F359410EE0A5F1C5
:1003500020050EF1200E012A03FA0EFC28BF4CF0F6
:10036000020C43FA05F3C01851EBE37101F00045AC
:1003700007D54FF0000EDCF1000C7EEB00006EEBB9
:100380000101B1F5801F1BD3B1F5001F0CD3490843
:100390005FEA30004FEA3C0C04F101044FEA44529A
:1003A00012F5800F80F09A80BCF1004F08BF5FEA21
:1003B000500C50F1000041EB045141EA050130BD01
:1003C0005FEA4C0C404141EB0101013C28BFB1F513
:1003D000801FE9D291F0000F04BF01460020B1FA5E
:1003E00081F308BF2033A3F10B03B3F120020CDA31
:1003F0000C3208DD02F1140CC2F10C0201FA0CF00F
:1004000021FA02F10CE002F11402D8BFC2F1200C73
:1004100001FA02F120FA0CFCDCBF41EA0C01904029
:10042000E41AA2BF01EB0451294330BD6FEA040472
:100430001F3C1CDA0C340EDC04F11404C4F120025D
:1004400020FA04F001FA02F340EA030021FA04F36F
:1004500045EA030130BDC4F10C04C4F1200220FAC6
:1004600002F001FA04F340EA0300294630BD21FA04
:1004700004F0294630BD94F0000F83F4801306BFCA
:1004800081F480110134013D4EE77FEA645C18BFBE
:100490007FEA655C29D094EA050F08BF90EA020F55
:1004A00005D054EA000C04BF1946104630BD91EA4D
:1004B000030F1EBF0021002030BD5FEA545C05D150
:1004C0004000494128BF41F0004130BD14F580048F
:1004D0003CBF01F5801130BD01F0004545F0FE4103
:1004E00041F470014FF0000030BD7FEA645C1ABF38
:1004F000194610467FEA655C1CBF0B46024650EA6F
:10050000013406BF52EA033591EA030F41F400219A
:1005100030BD00BF90F0000F04BF0021704730B520
:100520004FF4806404F132044FF000054FF00001F5
:1005300050E700BF90F0000F04BF0021704730B5B6
:100540004FF4806404F1320410F0004548BF40428B
:100550004FF000013EE700BF42004FEAE2014FEAE0
:1005600031014FEA02701FBF12F07F4393F07F4FBB
:1005700081F06051704732F07F4208BF704793F0BE
:100580007F4F04BF41F40021704730B54FF46074D1
:1005900001F0004521F000411CE700BF50EA0102D4
:1005A00008BF704730B54FF000050AE050EA01027D
:1005B00008BF704730B511F0004502D5404261EBED
:1005C00041014FF4806404F132045FEA915C3FF42E
:1005D000D8AE4FF003025FEADC0C18BF03325FEACB
:1005E000DC0C18BF033202EBDC02C2F1200300FA7C
:1005F00003FC20FA02F001FA03FE40EA0E0021FAA1
:1006000002F11444BDE600BF70B54FF0FF0C4CF48E
:10061000E06C1CEA11541DBF1CEA135594EA0C0F40
:1006200095EA0C0F00F0DEF82C4481EA030621EA7B
:100630004C5123EA4C5350EA013518BF52EA0335B6
:1006400041F4801143F4801338D0A0FB02CE4FF068
:100650000005E1FB02E506F00042E0FB03E54FF098
:100660000006E1FB03569CF0000F18BF4EF0010E90
:10067000A4F1FF04B6F5007F64F5407404D25FEA8C
:100680004E0E6D4146EB060642EAC62141EA55513F
:100690004FEAC52040EA5E504FEACE2EB4F1FD0C81
:1006A00088BFBCF5E06F1ED8BEF1004F08BF5FEAFF
:1006B000500E50F1000041EB045170BD06F00046B1
:1006C00046EA010140EA020081EA0301B4EB5C045E
:1006D000C2BFD4EB0C0541EA045170BD41F4801156
:1006E0004FF0000E013C00F3AB8014F1360FDEBF7B
:1006F000002001F0004170BDC4F10004203C35DA57
:100700000C341BDC04F11404C4F1200500FA05F3D9
:1007100020FA04F001FA05F240EA020001F000427A
:1007200021F0004110EBD37021FA04F642EB0601F0
:100730005EEA430E08BF20EAD37070BDC4F10C041A
:10074000C4F1200500FA04F320FA05F001FA04F2DE
:1007500040EA020001F0004110EBD37041F10001CA
:100760005EEA430E08BF20EAD37070BDC4F12005D5
:1007700000FA05F24EEA020E20FA04F301FA05F23D
:1007800043EA020321FA04F001F0004121FA04F2E5
:1007900020EA020000EBD3705EEA430E08BF20EAB5
:1007A000D37070BD94F0000F0FD101F000464000EF
:1007B00041EB010111F4801F08BF013CF7D041EA71
:1007C000060195F0000F18BF704703F00046520075
:1007D00043EB030313F4801F08BF013DF7D043EA46
:1007E0000603704794EA0C0F0CEA135518BF95EAFC
:1007F0000C0F0CD050EA410618BF52EA4306D1D183
:1008000081EA030101F000414FF0000070BD50EAA1
:10081000410606BF1046194652EA430619D094EA2B
:100820000C0F02D150EA013613D195EA0C0F05D115
:1008300052EA03361CBF104619460AD181EA030169
:1008400001F0004141F0FE4141F470014FF0000021
:1008500070BD41F0FE4141F4780170BD70B54FF0BC
:10086000FF0C4CF4E06C1CEA11541DBF1CEA13553C
:1008700094EA0C0F95EA0C0F00F0A7F8A4EB05041E
:1008800081EA030E52EA03354FEA013100F0888015
:100890004FEA03334FF0805545EA131343EA1263DE
:1008A0004FEA022245EA111545EA10654FEA002693
:1008B0000EF000419D4208BF964244F1FD0404F54C
:1008C000407402D25B084FEA3202B61A65EB0305A8
:1008D0005B084FEA32024FF480104FF4002CB6EB65
:1008E000020E75EB030E22BFB61A754640EA0C00E5
:1008F0005B084FEA3202B6EB020E75EB030E22BF25
:10090000B61A754640EA5C005B084FEA3202B6EB65
:10091000020E75EB030E22BFB61A754640EA9C0024
:100920005B084FEA3202B6EB020E75EB030E22BFF4
:10093000B61A754640EADC0055EA060E18D04FEAB2
:10094000051545EA16754FEA06164FEAC30343EA52
:1009500052734FEAC2025FEA1C1CC0D111F4801F1F
:100960000BD141EA00014FF000004FF0004CB6E718
:1009700011F4801F04BF01430020B4F1FD0C88BFB7
:10098000BCF5E06F3FF6AFAEB5EB030C04BFB6EBC2
:10099000020C5FEA500C50F1000041EB045170BDB5
:1009A0000EF0004E4EEA113114EB5C04C2BFD4EBE2
:1009B0000C0541EA045170BD41F480114FF0000E66
:1009C000013C90E645EA060E8DE60CEA135594EAE2
:1009D0000C0F08BF95EA0C0F3FF43BAF94EA0C0FE5
:1009E0000AD150EA01347FF434AF95EA0C0F7FF45A
:1009F00025AF104619462CE795EA0C0F06D152EAAE
:100A000003353FF4FDAE1046194622E750EA410691
:100A100018BF52EA43067FF4C5AE50EA41047FF4A2
:100A20000DAF52EA43057FF4EBAE12E74FF0FF3C07
:100A300006E000BF4FF0010C02E000BF4FF0010CD8
:100A40004DF804CD4FEA410C7FEA6C5C4FEA430C51
:100A500018BF7FEA6C5C1BD001B050EA410C0CBFA0
:100A600052EA430C91EA030F02BF90EA020F002002
:100A7000704710F1000F91EA030F58BF994208BF69
:100A800090422CBFD8176FEAE37040F00100704726
:100A90004FEA410C7FEA6C5C02D150EA013C07D17D
:100AA0004FEA430C7FEA6C5CD6D152EA033CD3D0C8
:100AB0005DF8040B704700BF8446104662468C46C2
:100AC0001946634600E000BF01B5FFF7B7FF0028F5
:100AD00048BF10F1000F01BD4DF808EDFFF7F4FF1E
:100AE0000CBF012000205DF808FB00BF4DF808EDA9
:100AF000FFF7EAFF34BF012000205DF808FB00BFCC
:100B00004DF808EDFFF7E0FF94BF012000205DF8ED
:100B100008FB00BF4DF808EDFFF7CEFF94BF0120A2
:100B200000205DF808FB00BF4DF808EDFFF7C4FF9B
:100B300034BF012000205DF808FB00BF4A0011D23D
:100B400012F5001211D20DD56FF47873B3EB625227
:100B50000ED44FEAC12343F0004343EA505323FA33
:100B600002F070474FF00000704750EA013002D1A8
:100B70004FF0FF3070474FF00000704753B94AB94B
:100B8000002908BF00281CBF4FF0FF314FF0FF3095
:100B900000F06EB9ADF1080C6DE904CE00F006F876
:100BA000DDF804E0DDE9022304B070472DE9F047E9
:100BB000089D04468C46002B40F083808A421746ED
:100BC00047D9B2FA82F242B1C2F1200024FA00F011
:100BD0009140974040EA010C94404FEA1748230C9B
:100BE000BCFBF8F61FFA87FE08FB16C143EA014377
:100BF00006FB0EF1994209D9FB1806F1FF3080F08F
:100C00001981994240F21681023E3B445B1AA4B21C
:100C1000B3FBF8F008FB103344EA034400FB0EFE7C
:100C2000A64509D93C1900F1FF3380F00581A6459E
:100C300040F2028102383C4440EA0640A4EB0E0434
:100C400000261DB1D4400023C5E900433146BDE86C
:100C5000F08702B9FFDEB2FA82F2002A50D1CB1B34
:100C60004FEA174E1FFA87F80126B3FBFEFC210C52
:100C70000EFB1C3341EA034108FB0CF38B4207D9FE
:100C800079180CF1FF3002D28B4200F2E9808446E1
:100C9000C91AA3B2B1FBFEF00EFB101143EA0144E6
:100CA00008FB00F8A04507D93C1900F1FF3302D238
:100CB000A04500F2D9801846A4EB080440EA0C4095
:100CC000BFE78B4209D9002D00F0B1800026C5E9AD
:100CD000000130463146BDE8F087B3FA83F6002EB6
:100CE0004AD18B4202D3824200F2B880841A61EB6F
:100CF000030101208C46002DA8D0C5E9004CA5E7D2
:100D0000C2F1200320FA03F6974001FA02F04FEAFD
:100D1000174ED9403043030CB1FBFEF61FFA87F89B
:100D20000EFB161143EA014306FB08F1994204FA4F
:100D300002F409D9FB1806F1FF3C80F08D8099423E
:100D400040F28A80023E3B445B1A81B2B3FBFEF064
:100D50000EFB103341EA034100FB08F38B4207D935
:100D6000791800F1FF3C73D28B4271D902383944B3
:100D7000CB1A40EA064678E7C6F1200C03FA06F4DF
:100D800022FA0CF31C4320FA0CF701FA06F34FEA9F
:100D9000144E21FA0CF11F433B0CB1FBFEF91FFA74
:100DA00084F80EFB191143EA014109FB08FA8A4550
:100DB00002FA06F200FA06F308D9611809F1FF30C9
:100DC00048D28A4546D9A9F102092144A1EB0A017A
:100DD000BFB2B1FBFEF00EFB101147EA014700FB6A
:100DE00008F8B84507D9E71900F1FF312ED2B84508
:100DF0002CD90238274440EA0940A7EB0807A0FB9A
:100E000002894F45C64649461AD317D05DB1B3EBA8
:100E10000E0267EB010707FA0CFCF2404CEA0202F3
:100E2000F740C5E9002700263146BDE8F0872E4689
:100E300028460BE70646E9E61846FDE64345E5D2B7
:100E4000B8EB020E69EB04010138DFE70846D2E790
:100E500060468DE78146B9E7664675E730464AE762
:100E6000ACF1020C394413E702383C4424E700BFDC
:100E7000704700BF80B584B000AF0346FB7100220D
:100E80004FF4E071274802F0E1FA012240212548A1
:100E900002F0DCFAFB799BB21946234802F0BEFA55
:100EA0000346012B01D10123FB73002240211D4881
:100EB00002F0CCFA012280211A4802F0C7FAFB792D
:100EC0009BB21946184802F0A9FA0346012B01D13A
:100ED0000223FB7300228021124802F0B7FA01229C
:100EE0004FF480710F4802F0B1FAFB799BB21946BA
:100EF0000D4802F093FA0346012B01D10323FB7343
:100F000000224FF48071074802F0A0FA01224FF44A
:100F1000E071044802F09AFAFB7B18461037BD4690
:100F200080BD00BF000802400004024080B584B0CC
:100F300000AF2D4A3B4607CA83E8070010212B4823
:100F400002F06CFA0346012B0CD11020FFF792FF40
:100F50000346FB73FB7B013B07F11002134413F8BC
:100F6000103C3CE02021214802F058FA0346012BB6
:100F70000CD12020FFF77EFF0346FB73FB7B02337F
:100F800007F11002134413F8103C28E040211748E1
:100F900002F044FA0346012B0CD14020FFF76AFF10
:100FA0000346FB73FB7B053307F11002134413F870
:100FB000103C14E080210D4802F030FA0346012B6A
:100FC0000CD18020FFF756FF0346FB73FB7B0833F1
:100FD00007F11002134413F8103C00E00C231846EC
:100FE0001037BD4680BD00BF4460000800040240C9
:100FF00080B500AF3C4B00221A703C4B00221A70A7
:101000003B4B00221A703B4B00221A703A4B0022D5
:101010001A703A4B00221A70394B00221A70394B61
:1010200063221A60384B63221A60384B00221A7010
:10103000374B00221A70374B00221A70364B0022B1
:101040001A70364B00221A70354B00221A70354B3D
:1010500002221A70344B00221A70344B00221A708C
:10106000334B01221A70334B01221A70324B00228B
:101070001A70324B00221A70314B00221A70314B19
:1010800000221A70304B00221A70304B00221A7066
:101090002F4B01221A702F4B00221A702E4B002268
:1010A0001A602E4B00221A602D4B00221A602D4B25
:1010B00000221A602C4B00221A602C4B00221A606E
:1010C0002B4B00221A602B4B00221A60002240F2A8
:1010D0000641294802F0BAF900224FF4805127480E
:1010E00002F0B4F900BF80BDAA000020AC000020CF
:1010F000AD000020AE000020AF000020B0000020B6
:10110000B10000200C00002010000020B8000020DA
:10111000B9000020BA000020BB000020BC00002065
:10112000BD00002014000020BE000020BF000020F1
:101130001500002016000020E0000020E100002043
:10114000E2000020E3000020E4000020E500002091
:1011500017000020E6000020C0000020C40000208E
:10116000C8000020CC000020D0000020D4000020C7
:10117000D8000020DC0000200008024000040240EB
:1011800080B500AF4FF47A7301221449144804F07B
:1011900034F8144B1B78012B0AD14FF47A730122D7
:1011A00011490F4804F029F80E4B02221A7010E082
:1011B0004FF47A7301220D49094804F01EF84FF4E8
:1011C0007A7301220A49064804F017F8054B0122F8
:1011D0001A700A2001F068FE00BF80BD18000020D0
:1011E0003C010020010000201A0000201B0000200C
:1011F0001900002080B500AF4FF47A73012209492D
:10120000094803F0FAFF4FF47A73012207490648B0
:1012100003F0F3FF064B01221A700A2001F044FE8E
:1012200000BF80BD180000203C0100201B000020F2
:101230000100002080B584B000AF174B1B78022B53
:1012400014D1FFF7D7FF154A07F1080392E803000E
:1012500018600433198007F108014FF47A730622ED
:101260000F4803F0CAFFFFF78BFF10E00A4B1B7813
:10127000032B0CD1FFF7BEFF0A4B7B60391D4FF4E7
:101280007A730422064803F0B8FFFFF779FF00BF26
:101290001037BD4680BD00BFA80000205060000888
:1012A0003C01002052756E0080B59AB000AF244B0F
:1012B0001B78012B07D0224B1B78022B03D0204B2D
:1012C0001B78032B21D11E4B1A781E4B1B789A4298
:1012D0001BD01B4B1A781C4B1A70194B1A78194BE0
:1012E0001A70174B1B78381D184A642104F05CFAF9
:1012F0003B1D1846FEF774FF03469AB2391D4FF4A2
:101300007A73134803F079FF16E00D4B1B780B2B13
:1013100012D10B4B1A780B4B1B789A420CD0084B0E
:101320001A78084B1A70084B1A780A4B1A700A4B35
:1013300000221A70FFF75CFE00BF6837BD4680BD13
:10134000AB00002000000020AA0000205860000828
:101350003C010020A8000020A900002080B59CB01E
:1013600002AF314B1B78052B25D82F4B1B78002B58
:1013700021D02D4B1A782D4B1B789A421BD02A4B2B
:101380001A782B4B1A70284B1A78284B1A70284B56
:101390001B78381D274A642104F006FA3B1D1846C5
:1013A000FEF71EFF03469AB2391D4FF47A732248A6
:1013B00003F023FF34E01C4B1B780B2B30D11A4B6E
:1013C0001A781A4B1B789A422AD0174B1A78174B67
:1013D0001A70174B1A78194B1A70194B00221A7091
:1013E000134B00221A70174B01221A70FFF722FFCD
:1013F000124B1B781A46381D134B01930092134B66
:10140000134A642104F0D0F93B1D1846FEF7E8FEAC
:1014100003469AB2391D4FF47A73074803F0EDFE84
:1014200000BF6837BD4680BDAB0000200000002033
:10143000AA000020586000083C010020B1000020F4
:10144000AF000020B0000020686000085C60000869
:101450006060000890B5A3B002AFB24B07F10C0476
:101460000FCB07C4238002341B0C2370AE4A3B46CB
:1014700007CA83E80700AD4B1A78AD4B1B789A4238
:1014800000F07481A94B1A78A94B1A70A74B1B78EE
:10149000092B23D8A74B1B781A46920013445B00F4
:1014A000DAB2A24B1B781344DAB2A24B1A709F4BEC
:1014B0001B7807F11C00A04A642104F075F907F1BC
:1014C0001C031846FEF78CFE03469AB207F11C0176
:1014D0004FF47A73994803F090FE47E1934B1B78E1
:1014E0000B2B40F04381964B1B78012B03D0944B80
:1014F0001B78022B5DD18F4B1B78022B0BD08D4BB1
:101500001B78042B07D08B4B1B78062B03D0894B01
:101510001B78082B20D18A4B1B78012B04D1854BDB
:101520001A78884B1A7003E0824B1A78864B1A702F
:10153000FFF780FE07F10C014FF47A730F227F480A
:1015400003F05BFE7B4B00221A70804B00221A7066
:101550007F4B01221A7009E1FFF76CFE39464FF408
:101560007A730C22754803F048FE642001F09CFC5D
:10157000FFF760FE724B1B781A4607F11C00754B93
:1015800001930092744B754A642104F00DF907F140
:101590001C031846FEF724FE03469AB207F11C010D
:1015A0004FF47A73654803F028FE624B00221A70EC
:1015B000DCE0634B1B78032B55D15E4B1B78052B6E
:1015C0000BD05C4B1B780A2B07D05A4B1B780F2B88
:1015D00003D0584B1B78142B18D1564B1B781A4646
:1015E0005F4B1A60534B00221A70FFF723FE07F17E
:1015F0000C014FF47A730F22504803F0FEFD534B59
:1016000000221A70524B01221A70AFE0FFF712FE4F
:1016100039464FF47A730C22484803F0EEFD6420FB
:1016200001F042FCFFF706FE454B1B781A4607F116
:101630001C00484B01930092474B484A642104F038
:10164000B3F807F11C031846FEF7CAFD03469AB229
:1016500007F11C014FF47A73384803F0CEFD354B87
:1016600000221A7082E0364B1B78042B03D0344BD7
:101670001B78052B7AD12F4B1B78002B24D02D4BB8
:101680001B78092B20D82E4B1B78042B04D1294B17
:101690001A78344B1A7003E0264B1A78324B1A70C2
:1016A000244B00221A70FFF7C5FD07F10C014FF41F
:1016B0007A730F22214803F0A0FD244B00221A70F8
:1016C000234B01221A7051E0FFF7B4FD39464FF465
:1016D0007A730C22194803F090FD642001F0E4FBBA
:1016E000FFF7A8FD164B1B781A4607F11C00194B93
:1016F00001930092184B194A642104F055F807F140
:101700001C031846FEF76CFD03469AB207F11C0154
:101710004FF47A73094803F070FD064B00221A70EB
:1017200024E000BF7060000880600008AB0000206B
:1017300000000020AA000020586000083C010020A2
:10174000B10000200200002003000020B0000020B3
:10175000AF000020686000085C600008606000085E
:1017600004000020080000200900002000BF84378A
:10177000BD4690BDB0B586B000AF0F4B1B78002BB7
:1017800015D00E4B3C1D1D460FCD0FC42B6823708A
:10179000FFF750FD391D4FF47A731122084803F00A
:1017A0002CFD054B00221A70064B01221A7000BF57
:1017B0001837BD46B0BD00BFE10000208C600008B6
:1017C0003C010020E4000020B0B586B000AF0F4B14
:1017D0001B78002B15D00E4B3C1D1D460FCD0FC4A2
:1017E0002B682370FFF726FD391D4FF47A73112201
:1017F000084803F002FD054B00221A70064B012237
:101800001A7000BF1837BD46B0BD00BFE20000200F
:10181000A06000083C010020E3000020B0B586B0C5
:1018200000AF174B1B78002B25D0164B3C1D1D46D7
:101830000FCD0FC42B682370FFF7FCFC124B1B78F5
:10184000002B0DD0391D4FF47A7311220F4803F08D
:10185000D4FC0D4B00221A700D4B01221A7007E0C8
:10186000002204210B4801F0F1FD074B01221A7000
:10187000034B00221A7000BF1837BD46B0BD00BF31
:10188000E5000020B4600008170000203C010020A3
:10189000E60000200008024090B585B000AF194B6B
:1018A0003C460FCB07C4238002341B0C2370164B1D
:1018B0001B78012B12D1FFF7BDFC39464FF47A7328
:1018C0000F22124803F099FC01224FF48061104866
:1018D00001F0BCFD0C4B00221A700EE00A4B1B7885
:1018E000022B0AD100224FF48061094801F0AEFDBD
:1018F000FFF7A0FC044B00221A7000BF1437BD464E
:1019000090BD00BFC8600008BE0000203C01002060
:101910000008024090B585B000AF184B3C460FCB95
:1019200007C42380164B1B78012B11D1FFF782FCD3
:1019300039464FF47A730E22124803F05EFC0122FE
:101940000221114801F082FD0D4B00221A7011E0B6
:101950000B4B1B78022B0DD1002202210A4801F00B
:1019600075FD074B00221A70084B1B78012B01D024
:10197000FFF760FC00BF1437BD4690BDD86000087B
:10198000BF0000203C01002000080240BE000020F3
:1019900080B483B000AF786007497A6813469B0033
:1019A00013445B014B63044B00229A6300BF0C3766
:1019B000BD465DF8047B70470004004080B483B0EE
:1019C00000AF0346FB71FA7913469B0013445B0199
:1019D0001A46054B9A63044B00225A6300BF0C372A
:1019E000BD465DF8047B70470004004080B500AF41
:1019F0002D4B1B680A2B0FDC2C4B1B78002B03D0C4
:101A00002B4B1B78002B07D1284B1B78002B27D0A2
:101A1000284B1B78002B23D0274B1B78012B02D19E
:101A20000320FFF7CBFF244B1B78032B0CD1234B58
:101A30001B78002B08D1224B1B785B08DBB20133EB
:101A4000DBB21846FFF7BAFF1B4B1B78032B27D1DD
:101A50001A4B1B78002B23D00220FFF7AFFF1FE0AB
:101A6000154B1B78012B02D10520FFF791FF124B7C
:101A70001B78032B08D1114B1B78002B04D1114B81
:101A80001B781846FFF784FF0B4B1B78032B08D1FC
:101A90000A4B1B78002B04D00320FFF779FF00E0EE
:101AA00000BF00BF80BD00BFB4000020BC0000200C
:101AB000E3000020E6000020A8000020E000002055
:101AC000090000200800002080B500AF2C4B1B68E7
:101AD000002B0FDD2B4B1B78002B03D02A4B1B78E0
:101AE000002B07D1274B1B78002B26D0274B1B78C8
:101AF000002B22D0264B1B78012B02D10320FFF7AD
:101B000047FF234B1B78032B0BD1224B1B78002B59
:101B100007D1214B1B785B08DBB201331846FFF776
:101B200037FF1B4B1B78012B27D11A4B1B78002B3F
:101B300023D00220FFF72CFF1FE0154B1B78012B51
:101B400002D10520FFF73AFF114B1B78032B08D178
:101B5000104B1B78002B04D1104B1B781846FFF755
:101B60002DFF0B4B1B78032B08D10A4B1B78002B46
:101B700004D00320FFF722FF00E000BF00BF80BDBC
:101B8000B4000020BC000020E4000020E60000209B
:101B9000A8000020E000002008000020090000202C
:101BA00080B500AF064B63221A60064B63221A60B1
:101BB0000020FFF7EDFE0020FFF700FF00BF80BD13
:101BC0000C0000201000002090B595B000AF814BB4
:101BD00007F140040FCB07C423707F4B07F130049B
:101BE0000FCB07C423807D4A07F1240307CA03C330
:101BF0001A800233120C1A70794B07F114040FCBC0
:101C000007C42370774B3C1D0FCB07C423800234DD
:101C10001B0C2370744B00221A6001F0D3F800F003
:101C2000E5FA00F05FFC00F041FB00F0AFFB00F0D4
:101C30002FFC6E4802F01AF900216C4802F0CAF934
:101C400004216A4802F0C6F90022F021684801F038
:101C5000FDFB01224FF4E071664801F0F7FB664896
:101C600002F004F94FF4FA7001F01EF9FFF75EF983
:101C700003461A46614B1A70614B1B78002B03D048
:101C80005E4B1B780A2B10D15E4B1B78002B0CD1BE
:101C9000FFF7B0FA07F140014FF47A730D225A486A
:101CA00003F0ABFA574B01221A70564B1B78002BEE
:101CB00001D0FFF7F9FA524B1B78012B18D1534B87
:101CC0001B78002B14D1524B1B78002B10D14D4B9D
:101CD0001B78002B0CD14E4B01221A70FFF78AFAA9
:101CE00007F130014FF47A730E22474803F085FA6A
:101CF000434B1B78012B1BD1444B1B78012B17D175
:101D0000444B1B78002B13D13E4B1B78002B0FD17B
:101D1000FFF736FA07F124014FF47A730B223A48A1
:101D200003F06BFA3B4B01221A703B4B01221A70F5
:101D3000334B1B78012B1BD1344B1B78022B17D153
:101D4000344B1B78002B13D12E4B1B78002B0FD15B
:101D5000FFF716FA07F114014FF47A730D222A489F
:101D600003F04BFA2B4B01221A702B4B02221A70F4
:101D7000234B1B78012B15D1274B1B78012B11D13D
:101D8000244B1B78002B0DD01E4B1B78002B09D148
:101D9000154B1B680B2B03D11F4B00221A7001E05F
:101DA000FFF724FE164B1B78012B39D11A4B1B78F9
:101DB000022B35D1174B1B78002B31D0114B1B78E0
:101DC000002B2DD1084B1B68002B27D1124B002272
:101DD0001A7025E0E8600008F86000080861000853
:101DE0001461000870600008B4000020F4000020B6
:101DF000000402400008024080010020AB000020E7
:101E0000A8000020A90000203C010020AD00002017
:101E1000AC000020AE000020B8000020FFF754FE08
:101E2000A14B1B78012B0DD1A04B1B78002B09D1A6
:101E30009F4B1B78002B05D09E4B1B78002B01D1AC
:101E4000FFF7AEFE984B1B78022B17D19A4B1B78ED
:101E5000002B13D1994B1B78002B0FD1954B1B787E
:101E6000002B0BD1FFF7E6F9391D4FF47A730F22DF
:101E7000934803F0C2F9904B01221A708A4B1B78E9
:101E8000022B09D18C4B1B78002B05D0894B1B787A
:101E9000002B01D1FFF762FA834B1B78022B09D18B
:101EA000864B1B78002B05D0824B1B78002B01D171
:101EB000FFF7D0FA7C4B1B78032B0CD17D4B1B78A2
:101EC000002B08D17F4B1B78002B04D1FFF7B2F910
:101ED0007C4B01221A707B4B1B78002B0DD0754B6D
:101EE0001B78002B09D1FFF7D7FCFFF713FDFFF795
:101EF00041FCFFF769FCFFF791FC724B1B78002B4C
:101F00001BD06C4B1B78002B17D16F4B1B78012B10
:101F100003D06E4B1B78012B0FD16D4B1B78002B20
:101F20000BD1624B01221A70674B00221A70674B6B
:101F300000221A70664B01221A705B4B1B78032B30
:101F40000DD15A4B1B78012B09D15A4B1B78002B12
:101F500005D15F4B1B78002B01D0FFF747FD524B9B
:101F60001B78032B1ED1514B1B78022B1AD1514BDE
:101F70001B78002B16D1564B1B78002B12D0FFF785
:101F8000A3FD514B1B78012B03D0504B1B78012B29
:101F900008D1464B01221A704B4B00221A704B4B52
:101FA00000221A70404B1B78032B40F0BD803F4B42
:101FB0001B78002B40F0B8803E4B1B78002B40F084
:101FC000B380434B1B78002B00F0AE80414B1B7855
:101FD000022B04D1404B1B68DAB23E4B1A703D4BCA
:101FE0001B78002B44D1FFF7DBFD3C4B1B78002B0B
:101FF0002DD13B4B1B78002B02D03A4B0B221A60A1
:10200000394B1B78002B0AD1384B1B68642202FB2A
:1020100003F3184600F048FF334B01221A702A4B95
:102020001B78022B7AD1294B1B78022B76D11F4BC0
:1020300002221A702C4B00221A70234B00221A70B5
:10204000224B00221A70234B02221A7066E0284BA2
:102050001B78002B62D0214B00221A70134B0122F7
:102060001A701C4B02221A70224B01221A7055E082
:10207000184B1B78012B51D1FFF792FD174B1B78A2
:10208000002B3BD11C4B1B78002B02D0154B0022A0
:102090001A600F4B00221A700E4B02221A70154B59
:1020A00000221A703AE000BFA8000020B80000200B
:1020B000AE000020A9000020AF000020B0000020EA
:1020C0003C010020BB000020B9000020BA00002025
:1020D000BC0000201400002010000020E6000020BA
:1020E000E3000020B4000020BD0000200400002018
:1020F00017000020E0000020E40000202E4B1B7899
:10210000002B0BD02D4B00221A702D4B02221A707F
:102110002C4B02221A702C4B01221A702B4B0022DE
:102120001A702B4B00221A702A4B1B78032B10D1EC
:10213000224B1B78002B0CD0274B1B78002B08D18F
:10214000264B1B78002B04D00421254801F097F979
:1021500004E000220421224801F078F91D4B1B788D
:10216000032B15D1154B1B78002B11D11A4B1B7863
:10217000002B0DD1194B1B78002B09D0104B1B786D
:10218000002B05D04FF48051164801F078F905E096
:1021900000224FF48051134801F058F94FF40071B8
:1021A000114801F06CF94FF480610F4801F067F9B4
:1021B000642000F079FE59E517000020E6000020B9
:1021C000B800002014000020E0000020E300002000
:1021D000E4000020A8000020A9000020BC0000208E
:1021E00000080240000402400000024080B594B0A4
:1021F00000AF07F1200330220021184603F0CCFA8B
:1022000007F10C0300221A605A609A60DA601A61C2
:102210000023BB60234B1B6C224A43F080531364A2
:10222000204B1B6C03F08053BB60BB6800237B60BA
:102230001D4B1B6823F440431B4A43F400431360C7
:10224000194B1B6803F440437B607B6802233B62AD
:102250000123FB6210233B630023BB6307F12003D0
:10226000184601F03FF90346002B01D000F0CCFBEB
:102270000F23FB6000233B6100237B614FF48053FD
:10228000BB610023FB6107F10C030021184601F03C
:10229000A1FB0346002B01D000F0B6FB00BF503776
:1022A000BD4680BD003802400070004080B58AB055
:1022B00000AF07F1180300221A605A609A60DA60D2
:1022C00007F1100300221A605A603B4600221A6090
:1022D0005A609A60DA602C4B4FF080421A602A4BA9
:1022E00040F23F625A60284B00229A60264B4FF022
:1022F000FF32DA60244B00221A61234B00229A61DC
:10230000214801F063FD0346002B01D000F07CFB67
:102310004FF48053BB6107F1180319461A4802F0C5
:10232000BDF90346002B01D000F06EFB164801F00A
:1023300001FF0346002B01D000F066FB00233B6148
:1023400000237B6107F1100319460F4802F086FE57
:102350000346002B01D000F057FB00233B60012314
:102360007B600023BB600023FB603B4600221946D4
:10237000054802F040F80346002B01D000F044FB72
:1023800000BF2837BD4680BD8001002080B58EB0DB
:1023900000AF07F1280300221A605A609A60DA60E1
:1023A00007F1200300221A605A603B1D00221A60C8
:1023B0005A609A60DA601A615A619A61324B334A04
:1023C0001A60314B40F23F625A602F4B00229A60F4
:1023D0002D4B40F2E732DA602B4B00221A612A4B78
:1023E00080229A61284801F0F1FC0346002B01D0BD
:1023F00000F00AFB4FF48053BB6207F12803194633
:10240000214802F04BF90346002B01D000F0FCFA02
:102410001D4801F085FD0346002B01D000F0F4FAC1
:1024200000233B6200237B6207F120031946164814
:1024300002F014FE0346002B01D000F0E5FA602301
:102440007B600023BB600023FB6000237B613B1D9E
:10245000002219460C4802F063F80346002B01D015
:1024600000F0D2FA3B1D04221946074802F058F842
:102470000346002B01D000F0C7FA034800F056FBDA
:1024800000BF3837BD4680BDF40000200004004086
:1024900080B500AF114B124A1A60104B4FF4165220
:1024A0005A600E4B00229A600C4B0022DA600B4BF4
:1024B00000221A61094B0C225A61084B00229A61D2
:1024C000064B0022DA61054802F04AFE0346002B63
:1024D00001D000F099FA00BF80BD00BF3C01002090
:1024E0000014014080B58AB000AF07F11403002248
:1024F0001A605A609A60DA601A6100233B616B4B84
:102500001B6B6A4A43F004031363684B1B6B03F0B5
:1025100004033B613B690023FB60644B1B6B634A14
:1025200043F080031363614B1B6B03F08003FB607C
:10253000FB680023BB605D4B1B6B5C4A43F00103EF
:1025400013635A4B1B6B03F00103BB60BB68002392
:102550007B60564B1B6B554A43F002031363534B8E
:102560001B6B03F002037B607B68002240F2C651C4
:102570004F4800F06BFF002241F2F0014D4800F09F
:1025800065FF00224FF4C0614B4800F05FFF40F24E
:10259000C6537B610123BB610023FB6100233B62C7
:1025A00007F114031946424800F0B4FD4FF44443C8
:1025B0007B61424BBB610023FB6107F114031946A9
:1025C0003C4800F0A7FD41F2F0037B610123BB61B1
:1025D0000023FB6100233B6207F1140319463548D1
:1025E00000F098FD4FF400537B61354BBB61002335
:1025F000FB6107F1140319462E4800F08BFD4FF4E0
:1026000000737B612E4BBB610023FB6107F1140358
:102610001946274800F07EFD4FF480737B61284BFC
:10262000BB610023FB6107F114031946224800F047
:1026300071FD4FF4C0637B610123BB610023FB612B
:1026400000233B6207F1140319461B4800F062FDAA
:102650004FF400637B610023BB610023FB6107F142
:1026600014031946124800F055FD4FF480537B6166
:10267000124BBB610023FB6107F1140319460C48A0
:1026800000F048FD00220021172000F00CFD17206B
:1026900000F025FD00220021282000F004FD282064
:1026A00000F01DFD00BF2837BD4680BD0038024048
:1026B0000008024000040240000002400000111027
:1026C0000000311000000000B0B582B000AF03463A
:1026D000FB80FB88B3F5807F6BD1994B1B78032B74
:1026E00067D1984B1B78002B08D0974B1B685B6A0F
:1026F000964A1360934B00221A705AE0924B1B6863
:102700005B6A934A13608F4B01221A70904B1A68D0
:102710008E4B1B68D31A8F4A13608E4B1B6818466A
:10272000FDF7F8FE82A3D3E90023FDF76DFF024613
:102730000B46104619464FF000024FF08043FEF75B
:102740008DF802460B4610461946FEF7F7F9034688
:10275000814A1360804B1B681846FDF7DBFE044678
:102760000D467E4B1B781846FDF7E4FE72A3D3E9B5
:102770000023FDF749FF02460B4620462946FEF797
:10278000BFF90346002B0AD0754B01221A70754B16
:102790001B78012B0DD0734B01221A7009E0704B8E
:1027A00002221A706F4B1B78022B02D06D4B022253
:1027B0001A70FB88B3F5007F6BD1614B1B78032B3C
:1027C00067D1694B1B78002B08D05F4B1B685B6A95
:1027D000664A1360644B00221A705AE05A4B1B6819
:1027E0005B6A634A1360604B01221A70604B1A687F
:1027F0005E4B1B68D31A5F4A13605E4B1B6818461A
:10280000FDF788FE4AA3D3E90023FDF7FDFE02464B
:102810000B46104619464FF000024FF08043FEF77A
:102820001DF802460B4610461946FEF787F9034687
:10283000514A1360504B1B681846FDF76BFE044667
:102840000D464E4B1B781846FDF774FE3AA3D3E9AC
:102850000023FDF7D9FE02460B4620462946FEF727
:102860004FF90346002B0AD0454B01221A70454B05
:102870001B78012B0DD0434B01221A7009E0404B0D
:1028800002221A703F4B1B78022B02D03D4B0222D2
:102890001A70FB88B3F5804F15D1294B1B78012B9B
:1028A0000AD1394B1B78012B06D1384B01221A7003
:1028B000354B00221A7006E0214B1B78032B02D106
:1028C000334B01221A70FB88B3F5004F15D11C4B16
:1028D0001B78012B0AD12C4B1B78012B06D12B4BDB
:1028E00002221A70284B00221A7006E0144B1B7843
:1028F000032B02D1274B01221A70FB88B3F5005F2E
:1029000006D10F4B1B78032B02D1234B01221A70E7
:10291000FB88B3F5806F4AD1204B1B68002B41D058
:102920001F4B1B6801331E4A136040E0AFF3008069
:1029300085EB51B81E850B407B14AE47E17A3E40D3
:10294000A80000201500002080010020C000002009
:10295000C4000020C8000020CC000020020000209D
:10296000BE000020B900002016000020D00000208A
:10297000D4000020D8000020DC000020030000204C
:10298000BF000020BA000020AC000020AD000020F5
:10299000E2000020E1000020E500002010000020FF
:1029A000B4000020134B1B68013B124A1360FB88E4
:1029B000B3F5805F19D14FF400610F4800F02EFD90
:1029C00003461A460D4B1A600D4B1B68632B03D14F
:1029D0000A4B1B680A4A1360084B1A68084B1B68AD
:1029E0009A4202D0074B00221A7000BF0837BD463A
:1029F000B0BD00BFB400002000080240100000205D
:102A00000C000020B800002080B400AF72B600BFF8
:102A1000FEE7000080B582B000AF00237B60104B62
:102A20005B6C0F4A43F4804353640D4B5B6C03F4BF
:102A300080437B607B6800233B60094B1B6C084A2A
:102A400043F080531364064B1B6C03F080533B60D0
:102A50003B68072000F01CFB00BF0837BD4680BD67
:102A60000038024080B58AB000AF786007F11403E7
:102A700000221A605A609A60DA601A617B681B68EB
:102A8000B3F1804F2DD100233B61254B1B6C244AB1
:102A900043F001031364224B1B6C03F001033B6101
:102AA0003B690023FB601E4B1B6B1D4A43F0010377
:102AB00013631B4B1B6B03F00103FB60FB684FF4BC
:102AC00000437B610223BB610023FB6100233B6267
:102AD00001237B6207F114031946124800F01AFB28
:102AE0001AE07B681B68104A934215D10023BB6033
:102AF0000B4B1B6C0A4A43F002031364084B1B6C1C
:102B000003F00203BB60BB68002200211D2000F01F
:102B1000CAFA1D2000F0E3FA00BF2837BD4680BD89
:102B200000380240000002400004004080B588B038
:102B300000AF786007F10C0300221A605A609A60B7
:102B4000DA601A617B681B68124A93421DD1002328
:102B5000BB60114B1B6B104A43F0010313630E4B18
:102B60001B6B03F00103BB60BB68C023FB60022347
:102B70003B6100237B610023BB610223FB6107F102
:102B80000C031946054800F0C5FA00BF2037BD46C2
:102B900080BD00BF00040040003802400000024039
:102BA00080B58AB000AF786007F1140300221A6084
:102BB0005A609A60DA601A617B681B68194A93420E
:102BC0002CD100233B61184B5B6C174A43F0200368
:102BD0005364154B5B6C03F020033B613B6900239E
:102BE000FB60114B1B6B104A43F0010313630E4B48
:102BF0001B6B03F00103FB60FB684FF4C0537B6168
:102C00000223BB610023FB6103233B6208237B6239
:102C100007F114031946054800F07CFA00BF283775
:102C2000BD4680BD00140140003802400000024053
:102C300080B400AFFEE780B400AFFEE780B400AF21
:102C4000FEE780B400AFFEE780B400AFFEE780B4DB
:102C500000AF00BFBD465DF8047B704780B400AF95
:102C600000BFBD465DF8047B704780B400AF00BF75
:102C7000BD465DF8047B704780B500AF00F0F4F806
:102C800000BF80BD80B500AF4FF4807000F012FC33
:102C90004FF4007000F00EFC00BF80BD80B500AFA7
:102CA000024801F0A0FA00BF80BD00BFF400002080
:102CB00080B500AF4FF4806000F0FCFB4FF4805013
:102CC00000F0F8FB4FF4005000F0F4FB4FF48040AC
:102CD00000F0F0FB4FF4004000F0ECFB00BF80BDC3
:102CE00080B586B000AF7860144A154BD31A7B616B
:102CF0007B693B61134B1B68002B02D1114B124ABD
:102D00001A60104B1A687B6813443A699A4207D2DA
:102D100002F018FD03460C221A604FF0FF3309E061
:102D2000084B1B68FB60074B1A687B681344054A15
:102D30001360FB6818461837BD4680BD008001202F
:102D400000040000E8000020E001002080B400AF93
:102D5000064BD3F88830054A43F47003C2F8883034
:102D600000BFBD465DF8047B704700BF00ED00E08A
:102D7000DFF834D00D480E490E4A002302E0D45843
:102D8000C4500433C4188C42F9D30B4A0B4C0023B3
:102D900001E013600432A242FBD3FFF7D7FF02F039
:102DA000D7FCFEF711FF70470080012000000020D3
:102DB0008C000020806100088C000020DC010020D5
:102DC000FEE7000080B500AF0E4B1B680D4A43F4D0
:102DD000007313600B4B1B680A4A43F48063136053
:102DE000084B1B68074A43F480731360032000F00C
:102DF0004FF9002000F008F8FFF70CFE00231846FA
:102E000080BD00BF003C024080B582B000AF78605A
:102E1000124B1A68124B1B7819464FF47A73B3FBA6
:102E2000F1F3B2FBF3F3184600F067F90346002B09
:102E300001D001230EE07B680F2B0AD800227968AD
:102E40004FF0FF3000F02FF9064A7B681360002333
:102E500000E0012318460837BD4680BD1C00002055
:102E6000240000202000002080B400AF064B1B7817
:102E70001A46064B1B681344044A136000BFBD4644
:102E80005DF8047B704700BF24000020C8010020CB
:102E900080B400AF034B1B681846BD465DF8047B49
:102EA000704700BFC801002080B584B000AF7860D3
:102EB000FFF7EEFFB8607B68FB60FB68B3F1FF3F94
:102EC00005D00A4B1B781A46FB681344FB6000BF11
:102ED000FFF7DEFF0246BB68D31AFA689A42F7D8BA
:102EE00000BF00BF1037BD4680BD00BF24000020DA
:102EF00080B485B000AF78607B6803F00703FB60A7
:102F00000C4BDB68BB60BA684FF6FF031340BB6035
:102F1000FB681A02BB68134343F0BF6343F40033FA
:102F2000BB60044ABB68D36000BF1437BD465DF880
:102F3000047B704700ED00E080B400AF044BDB6819
:102F40001B0A03F007031846BD465DF8047B704773
:102F500000ED00E080B483B000AF0346FB7197F949
:102F60000730002B0BDBFB7903F01F02074997F9B1
:102F700007305B09012000FA02F241F8232000BF6C
:102F80000C37BD465DF8047B704700BF00E100E0F0
:102F900080B483B000AF03463960FB7197F9073006
:102FA000002B0ADB3B68DAB20C4997F907301201B3
:102FB000D2B20B4483F800230AE03B68DAB2084936
:102FC000FB7903F00F03043B1201D2B20B441A76D3
:102FD00000BF0C37BD465DF8047B704700E100E0A0
:102FE00000ED00E080B489B000AFF860B9607A60AD
:102FF000FB6803F00703FB61FB69C3F10703042BC4
:1030000028BF0423BB61FB690433062B02D9FB698B
:10301000033B00E000237B614FF0FF32BB6902FA03
:1030200003F3DA43BB681A407B699A404FF0FF31E3
:103030007B6901FA03F3D9437B680B4013431846BD
:103040002437BD465DF8047B7047000080B582B030
:1030500000AF78607B68013BB3F1807F01D301232F
:103060000FE00A4A7B68013B53600F214FF0FF30AD
:10307000FFF78EFF054B00229A60044B07221A606F
:10308000002318460837BD4680BD00BF10E000E0B1
:1030900080B582B000AF78607868FFF729FF00BF85
:1030A0000837BD4680BD80B586B000AF0346B96025
:1030B0007A60FB7300237B61FFF73EFF78617A68DB
:1030C000B9687869FFF78EFF024697F90F3011460D
:1030D0001846FFF75DFF00BF1837BD4680BD80B5BD
:1030E00082B000AF0346FB7197F907301846FFF72F
:1030F00031FF00BF0837BD4680BD80B582B000AF4C
:1031000078607868FFF7A2FF034618460837BD4687
:1031100080BD000080B489B000AF786039600023C2
:103120007B6100233B610023BB610023FB6159E10C
:103130000122FB6902FA03F37B613B681B687A6931
:1031400013403B613A697B699A4240F048813B6891
:103150005B6803F00303012B05D03B685B6803F059
:103160000303022B30D17B689B68BB61FB695B006A
:10317000032202FA03F3DB43BA691340BB613B68E5
:10318000DA68FB695B0002FA03F3BA691343BB61B7
:103190007B68BA699A607B685B68BB610122FB69E6
:1031A00002FA03F3DB43BA691340BB613B685B6817
:1031B0001B0903F00102FB6902FA03F3BA69134326
:1031C000BB617B68BA695A603B685B6803F00303C4
:1031D000032B17D07B68DB68BB61FB695B000322B4
:1031E00002FA03F3DB43BA691340BB613B689A6898
:1031F000FB695B0002FA03F3BA691343BB617B68A6
:10320000BA69DA603B685B6803F00303022B23D1E1
:10321000FB69DA087B68083253F82230BB61FB692E
:1032200003F007039B000F2202FA03F3DB43BA69A2
:103230001340BB613B681A69FB6903F007039B00FD
:1032400002FA03F3BA691343BB61FB69DA087B68CE
:103250000832B96943F822107B681B68BB61FB69BF
:103260005B00032202FA03F3DB43BA691340BB613C
:103270003B685B6803F00302FB695B0002FA03F33F
:10328000BA691343BB617B68BA691A603B685B68C3
:1032900003F08053002B00F0A2800023FB60574B0B
:1032A0005B6C564A43F480435364544B5B6C03F4A9
:1032B0008043FB60FB68524AFB699B08023352F86B
:1032C0002330BB61FB6903F003039B000F2202FA6A
:1032D00003F3DB43BA691340BB617B68494A9342FD
:1032E00019D07B68484A934213D07B68474A93427F
:1032F0000DD07B68464A934207D07B68454A93428B
:1033000001D1042308E0072306E0032304E002239D
:1033100002E0012300E00023FA6902F003029200B8
:103320009340BA691343BB613549FB699B0802337B
:10333000BA6941F82320384B1B68BB613B69DB430A
:10334000BA691340BB613B685B6803F48033002BB0
:1033500003D0BA693B691343BB612F4ABB69136051
:103360002D4B5B68BB613B69DB43BA691340BB61B2
:103370003B685B6803F40033002B03D0BA693B69F8
:103380001343BB61244ABB695360234B9B68BB61F9
:103390003B69DB43BA691340BB613B685B6803F47C
:1033A0008013002B03D0BA693B691343BB611A4AEF
:1033B000BB699360184BDB68BB613B69DB43BA694F
:1033C0001340BB613B685B6803F40013002B03D020
:1033D000BA693B691343BB610F4ABB69D360FB69A0
:1033E0000133FB61FB690F2B7FF6A2AE00BF00BF6C
:1033F0002437BD465DF8047B704700BF00380240AB
:103400000038014000000240000402400008024071
:10341000000C024000100240003C014080B485B026
:1034200000AF78600B467B807B681A697B8813400D
:10343000002B02D00123FB7301E00023FB73FB7B15
:1034400018461437BD465DF8047B704780B483B0DE
:1034500000AF78600B467B8013467B707B78002B37
:1034600003D07A887B689A6103E07B881A047B68C2
:103470009A6100BF0C37BD465DF8047B704780B48D
:1034800085B000AF78600B467B807B685B69FB6032
:103490007A88FB6813401A04FB68D9437B880B4089
:1034A0001A437B689A6100BF1437BD465DF8047B00
:1034B0007047000080B582B000AF0346FB80084B28
:1034C0005A69FB881340002B06D0054AFB885361DC
:1034D000FB881846FFF7F8F800BF0837BD4680BDE7
:1034E000003C014080B586B000AF78607B68002B5F
:1034F00001D1012364E27B681B6803F00103002B08
:1035000075D0A34B9B6803F00C03042B0CD0A04B8D
:103510009B6803F00C03082B12D19D4B5B6803F4EE
:103520008003B3F5800F0BD1994B1B6803F4003374
:10353000002B5BD07B685B68002B57D101233FE2F7
:103540007B685B68B3F5803F06D1914B1B68904A5E
:1035500043F4803313601DE07B685B68B3F5A02FF4
:103560000CD18B4B1B688A4A43F480231360884B31
:103570001B68874A43F4803313600BE0844B1B685D
:10358000834A23F480331360814B1B68804A23F401
:10359000802313607B685B68002B13D0FFF778FCF7
:1035A000386108E0FFF774FC02463B69D31A642BCC
:1035B00001D9032304E2764B1B6803F40033002B8C
:1035C000F0D014E0FFF764FC386108E0FFF760FC1E
:1035D00002463B69D31A642B01D90323F0E16C4BFB
:1035E0001B6803F40033002BF0D100E000BF7B68C0
:1035F0001B6803F00203002B63D0654B9B6803F04C
:103600000C03002B0BD0624B9B6803F00C03082BC0
:103610001CD15F4B5B6803F48003002B16D15C4B1D
:103620001B6803F00203002B05D07B68DB68012BCD
:1036300001D00123C4E1564B1B6823F0F8027B68DC
:103640001B69DB00524913430B603AE07B68DB687F
:10365000002B20D04F4B01221A60FFF719FC386174
:1036600008E0FFF715FC02463B69D31A022B01D98B
:103670000323A5E1464B1B6803F00203002BF0D0A7
:10368000434B1B6823F0F8027B681B69DB00404951
:1036900013430B6015E03F4B00221A60FFF7F8FB65
:1036A000386108E0FFF7F4FB02463B69D31A022BAE
:1036B00001D9032384E1364B1B6803F00203002B7E
:1036C000F0D17B681B6803F00803002B30D07B68C7
:1036D0005B69002B16D0304B01221A60FFF7D8FB34
:1036E000386108E0FFF7D4FB02463B69D31A022B8E
:1036F00001D9032364E1264B5B6F03F00203002B27
:10370000F0D015E0244B00221A60FFF7C1FB3861AE
:1037100008E0FFF7BDFB02463B69D31A022B01D933
:1037200003234DE11A4B5B6F03F00203002BF0D132
:103730007B681B6803F00403002B00F0A0800023CB
:10374000FB75134B1B6C03F08053002B0FD1002330
:10375000BB600F4B1B6C0E4A43F0805313640C4B41
:103760001B6C03F08053BB60BB680123FB750B4BE4
:103770001B6803F48073002B21D1084B1B68074A98
:1037800043F480731360FFF783FB386111E000BFDF
:103790000038024000004742800E4742007000405F
:1037A000FFF776FB02463B69D31A022B01D90323AC
:1037B00006E1854B1B6803F48073002BF0D07B6817
:1037C0009B68012B06D1814B1B6F804A43F001039C
:1037D00013671CE07B689B68052B0CD17B4B1B6F30
:1037E0007A4A43F004031367784B1B6F774A43F020
:1037F000010313670BE0754B1B6F744A23F0010341
:103800001367724B1B6F714A23F0040313677B68C5
:103810009B68002B15D0FFF73BFB38610AE0FFF7F0
:1038200037FB02463B69D31A41F28832934201D9F1
:103830000323C5E0654B1B6F03F00203002BEED0A2
:1038400014E0FFF725FB38610AE0FFF721FB024691
:103850003B69D31A41F28832934201D90323AFE086
:103860005A4B1B6F03F00203002BEED1FB7D012BA3
:1038700005D1564B1B6C554A23F0805313647B686B
:103880009B69002B00F09B80504B9B6803F00C035E
:10389000082B5CD07B689B69022B41D14C4B0022EA
:1038A0001A60FFF7F5FA386108E0FFF7F1FA02460F
:1038B0003B69D31A022B01D9032381E0434B1B68D8
:1038C00003F00073002BF0D17B68DA697B681B6A18
:1038D0001A437B685B6A9B011A437B689B6A5B089F
:1038E000013B1B041A437B68DB6A1B063749134301
:1038F0004B60374B01221A60FFF7CAFA386108E0C3
:10390000FFF7C6FA02463B69D31A022B01D90323FB
:1039100056E02E4B1B6803F00073002BF0D04EE0F6
:103920002B4B00221A60FFF7B3FA386108E0FFF76B
:10393000AFFA02463B69D31A022B01D903233FE0B9
:10394000224B1B6803F00073002BF0D137E07B683B
:103950009B69012B01D1012332E01C4B5B68FB60AA
:103960007B689B69012B28D0FB6803F480027B688D
:10397000DB699A4221D1FB6803F03F027B681B6A36
:103980009A421AD1FA6847F6C07313407A68526AAD
:103990009201934211D1FB6803F440327B689B6A29
:1039A0005B08013B1B049A4207D1FB6803F070627D
:1039B0007B68DB6A1B069A4201D0012300E00023EA
:1039C00018461837BD4680BD0070004000380240E0
:1039D0006000474280B584B000AF786039607B6892
:1039E000002B01D10123CCE0684B1B6803F00703D7
:1039F0003A689A420CD9654B3A68D2B21A70634B56
:103A00001B6803F007033A689A4201D00123B8E02B
:103A10007B681B6803F00203002B20D07B681B68C7
:103A200003F00403002B05D0594B9B68584A43F41C
:103A3000E05393607B681B6803F00803002B05D0FC
:103A4000534B9B68524A43F460439360504B9B68CE
:103A500023F0F0027B689B684D4913438B607B68C1
:103A60001B6803F00103002B44D07B685B68012BCB
:103A700007D1474B1B6803F40033002B19D10123F6
:103A80007FE07B685B68022B03D07B685B68032B5D
:103A900007D13F4B1B6803F00073002B09D10123B2
:103AA0006FE03B4B1B6803F00203002B01D10123A5
:103AB00067E0374B9B6823F003027B685B683449FF
:103AC00013438B60FFF7E4F9F8600AE0FFF7E0F9D1
:103AD0000246FB68D31A41F28832934201D903238C
:103AE0004FE02B4B9B6803F00C027B685B689B00EC
:103AF0009A42EBD1254B1B6803F007033A689A42C0
:103B00000CD2224B3A68D2B21A70204B1B6803F0D9
:103B100007033A689A4201D0012332E07B681B68B0
:103B200003F00403002B08D0194B9B6823F4E052E8
:103B30007B68DB68164913438B607B681B6803F066
:103B40000803002B09D0124B9B6823F460427B686A
:103B50001B69DB000E4913438B6000F021F802461D
:103B60000B4B9B681B0903F00F030A49CB5C22FA3D
:103B700003F3094A1360094B1B681846FFF744F921
:103B8000002318461037BD4680BD00BF003C0240F0
:103B900000380240246100081C00002020000020A2
:103BA0002DE9B04384B000AF00237B600023FB60AD
:103BB00000233B600023BB60674B9B6803F00C0352
:103BC000082B0DD0082B00F2BD80002B02D0042B57
:103BD00003D0B7E0614BBB60B7E0614BBB60B4E0C2
:103BE0005D4B5B6803F03F037B605B4B5B6803F4FA
:103BF0008003002B4DD0584B5B689B091A464FF051
:103C0000000340F2FF104FF0000102EA000803EA4F
:103C10000109404649464FF000024FF000034B01B6
:103C200043EAD063420110461946B0EB080061EB4D
:103C300009014FF000024FF000038B0143EA90634B
:103C40008201121A63EB01034FF000004FF00001F4
:103C5000D90041EA5271D00002460B4612EB08022D
:103C600043EB09034FF000004FF00001590241EA15
:103C7000D251500202460B46104619467B681A463E
:103C80004FF00003FCF77AFF02460B461346FB6039
:103C90004AE0314B5B689B091A464FF0000340F243
:103CA000FF104FF0000102EA000403EA010520467C
:103CB00029464FF000024FF000034B0143EAD06366
:103CC000420110461946001B61EB05014FF000024E
:103CD0004FF000038B0143EA90638201121A63EBF9
:103CE00001034FF000004FF00001D90041EA52718A
:103CF000D00002460B46121945EB03034FF00000BB
:103D00004FF00001990241EA9251900202460B469F
:103D1000104619467B681A464FF00003FCF72EFF49
:103D200002460B461346FB600B4B5B681B0C03F013
:103D3000030301335B003B60FA683B68B2FBF3F3BB
:103D4000BB6002E0054BBB6000BFBB681846103784
:103D5000BD46BDE8B08300BF003802400024F40037
:103D600000127A0080B400AF034B1B681846BD46B2
:103D70005DF8047B704700BF1C00002080B500AFD9
:103D8000FFF7F0FF0246054B9B689B0A03F0070311
:103D90000349CB5C22FA03F3184680BD0038024089
:103DA0003461000880B500AFFFF7DCFF0246054B29
:103DB0009B685B0B03F007030349CB5C22FA03F318
:103DC000184680BD003802403461000880B582B0DA
:103DD00000AF78607B68002B01D1012341E07B6854
:103DE00093F83D30DBB2002B06D17B68002283F8CC
:103DF0003C207868FEF736FE7B68022283F83D207F
:103E00007B681A687B6804331946104600F03CFD55
:103E10007B68012283F846207B68012283F83E20DC
:103E20007B68012283F83F207B68012283F84020D1
:103E30007B68012283F841207B68012283F84220BD
:103E40007B68012283F843207B68012283F84420A9
:103E50007B68012283F845207B68012283F83D209E
:103E6000002318460837BD4680BD000080B485B0E9
:103E700000AF78607B6893F83D30DBB2012B01D056
:103E800001233CE07B68022283F83D207B681B68AD
:103E90001E4A934218D07B681B68B3F1804F13D041
:103EA0007B681B681A4A93420ED07B681B68194ACC
:103EB000934209D07B681B68174A934204D07B6801
:103EC0001B68164A934211D17B681B689B6803F0FC
:103ED0000703FB60FB68062B10D07B681B681A6821
:103EE0007B681B6842F001021A6007E07B681B6870
:103EF0001A687B681B6842F001021A6000231846AA
:103F00001437BD465DF8047B704700BF00000140D8
:103F10000004004000080040000C00400040014048
:103F200080B582B000AF78607B68002B01D101239F
:103F300041E07B6893F83D30DBB2002B06D17B6813
:103F4000002283F83C20786800F039F87B68022270
:103F500083F83D207B681A687B6804331946104655
:103F600000F092FC7B68012283F846207B680122E6
:103F700083F83E207B68012283F83F207B68012282
:103F800083F840207B68012283F841207B6801226E
:103F900083F842207B68012283F843207B6801225A
:103FA00083F844207B68012283F845207B68012246
:103FB00083F83D20002318460837BD4680BD80B4F5
:103FC00083B000AF786000BF0C37BD465DF8047B5E
:103FD0007047000080B584B000AF786039603B68FE
:103FE000002B09D17B6893F83E30DBB2012B14BF64
:103FF00001230023DBB222E03B68042B09D17B685C
:1040000093F83F30DBB2012B14BF01230023DBB256
:1040100015E03B68082B09D17B6893F84030DBB290
:10402000012B14BF01230023DBB208E07B6893F867
:104030004130DBB2012B14BF01230023DBB2002B84
:1040400001D0012368E03B68002B04D17B68022289
:1040500083F83E2013E03B68042B04D17B680222E6
:1040600083F83F200BE03B68082B04D17B680222D9
:1040700083F8402003E07B68022283F841207B68BC
:104080001B6801223968184600F0C2FF7B681B6874
:10409000234A934207D17B681B685A6C7B681B6874
:1040A00042F400425A647B681B681D4A934218D050
:1040B0007B681B68B3F1804F13D07B681B68194A7B
:1040C00093420ED07B681B68174A934209D07B68E5
:1040D0001B68164A934204D07B681B68144A9342BB
:1040E00011D17B681B689B6803F00703FB60FB68CA
:1040F000062B10D07B681B681A687B681B6842F02F
:1041000001021A6007E07B681B681A687B681B68FD
:1041100042F001021A60002318461037BD4680BDE8
:10412000000001400004004000080040000C004076
:104130000040014080B582B000AF78607B68002B02
:1041400001D1012341E07B6893F83D30DBB2002BC5
:1041500006D17B68002283F83C20786800F039F8AB
:104160007B68022283F83D207B681A687B680433F1
:104170001946104600F088FB7B68012283F8462030
:104180007B68012283F83E207B68012283F83F2070
:104190007B68012283F840207B68012283F841205C
:1041A0007B68012283F842207B68012283F8432048
:1041B0007B68012283F844207B68012283F8452034
:1041C0007B68012283F83D20002318460837BD464E
:1041D00080BD80B483B000AF786000BF0C37BD46AF
:1041E0005DF8047B704780B582B000AF78607B6873
:1041F0001B681B6903F00203022B22D17B681B683A
:10420000DB6803F00203022B1BD17B681B686FF095
:1042100002021A617B6801221A777B681B689B691E
:1042200003F00303002B03D0786800F00FFB05E0D8
:10423000786800F001FB786800F012FB7B680022D0
:104240001A777B681B681B6903F00403042B22D1D7
:104250007B681B68DB6803F00403042B1BD17B68BD
:104260001B686FF004021A617B6802221A777B6870
:104270001B689B6903F44073002B03D0786800F03F
:10428000E5FA05E0786800F0D7FA786800F0E8FA17
:104290007B6800221A777B681B681B6903F00803A0
:1042A000082B22D17B681B68DB6803F00803082B0E
:1042B0001BD17B681B686FF008021A617B680422BF
:1042C0001A777B681B68DB6903F00303002B03D0BC
:1042D000786800F0BBFA05E0786800F0ADFA78681D
:1042E00000F0BEFA7B6800221A777B681B681B69A6
:1042F00003F01003102B22D17B681B68DB6803F0EE
:104300001003102B1BD17B681B686FF010021A6121
:104310007B6808221A777B681B68DB6903F44073AB
:10432000002B03D0786800F091FA05E0786800F07F
:1043300083FA786800F094FA7B6800221A777B6829
:104340001B681B6903F00103012B0ED17B681B68FE
:10435000DB6803F00103012B07D17B681B686FF05A
:1043600001021A61786800F05DFA7B681B681B69BE
:1043700003F08003802B0ED17B681B68DB6803F0A1
:104380008003802B07D17B681B686FF080021A6165
:10439000786800F0DBFE7B681B681B6903F0400354
:1043A000402B0ED17B681B68DB6803F04003402B79
:1043B00007D17B681B686FF040021A61786800F0D3
:1043C00059FA7B681B681B6903F02003202B0ED170
:1043D0007B681B68DB6803F02003202B07D17B6818
:1043E0001B686FF020021A61786800F0A5FE00BF1C
:1043F0000837BD4680BD80B584B000AFF860B960B5
:104400007A60FB6893F83C30012B01D1022382E0F3
:10441000FB68012283F83C207B68002B1BD1FB68E2
:104420001868BB681968BB685A68BB68DB6800F02D
:1044300037FCFB681B689A69FB681B6822F00C025A
:104440009A61FB681B689969BB689A68FB681B687E
:104450000A439A615AE07B68042B1CD1FB681868F8
:10446000BB681968BB685A68BB68DB6800F0AFFCC2
:10447000FB681B689A69FB681B6822F440629A61BA
:10448000FB681B689969BB689B681A02FB681B681C
:104490000A439A613AE07B68082B1BD1FB681868D5
:1044A000BB681968BB685A68BB68DB6800F0FCFC35
:1044B000FB681B68DA69FB681B6822F00C02DA6192
:1044C000FB681B68D969BB689A68FB681B680A436C
:1044D000DA611BE0FB681868BB681968BB685A683A
:1044E000BB68DB6800F01CFDFB681B68DA69FB68D1
:1044F0001B6822F44062DA61FB681B68D969BB68FB
:104500009B681A02FB681B680A43DA61FB68002299
:1045100083F83C20002318461037BD4680BD0000BC
:1045200080B584B000AFF860B9607A60FB6893F83A
:104530003C30012B01D10223ACE0FB68012283F85F
:104540003C207B680C2B00F29F8001A252F823F0E4
:104550008545000889460008894600088946000804
:10456000C5450008894600088946000889460008B4
:104570000746000889460008894600088946000861
:1045800047460008FB681B68B968184600F0FCF94C
:10459000FB681B689A69FB681B6842F008029A6115
:1045A000FB681B689A69FB681B6822F004029A6129
:1045B000FB681B689969BB681A69FB681B680A433A
:1045C0009A6162E0FB681B68B968184600F042FA1D
:1045D000FB681B689A69FB681B6842F400629A6179
:1045E000FB681B689A69FB681B6822F480629A6109
:1045F000FB681B689969BB681B691A02FB681B682A
:104600000A439A6141E0FB681B68B968184600F0EC
:104610008DFAFB681B68DA69FB681B6842F00802C8
:10462000DA61FB681B68DA69FB681B6822F0040228
:10463000DA61FB681B68D969BB681A69FB681B688B
:104640000A43DA6121E0FB681B68B968184600F08C
:10465000D7FAFB681B68DA69FB681B6842F40062E2
:10466000DA61FB681B68DA69FB681B6822F4806208
:10467000DA61FB681B68D969BB681B691A02FB68B1
:104680001B680A43DA6100E000BFFB68002283F880
:104690003C20002318461037BD4680BD80B584B04D
:1046A00000AF786039607B6893F83C30012B01D112
:1046B0000223B3E07B68012283F83C207B6802225E
:1046C00083F83D207B681B689B68FB60FB6823F0D8
:1046D0007703FB60FB6823F47F43FB607B681B6808
:1046E000FA689A603B681B68B3F5005F3ED0B3F58B
:1046F000005F00F28780B3F5805F00F08580B3F53E
:10470000805F7FD8702B1AD0702B7BD8602B50D055
:10471000602B77D8502B3CD0502B73D8402B58D0DF
:10472000402B6FD8302B64D0302B6BD8202B60D02F
:10473000202B67D8002B5CD0102B5AD062E07B680E
:1047400018683B6899683B685A683B68DB6800F00A
:104750003FFC7B681B689B68FB60FB6843F077034A
:10476000FB607B681B68FA689A604EE07B6818689B
:104770003B6899683B685A683B68DB6800F028FC36
:104780007B681B689A687B681B6842F480429A6069
:104790003BE07B6818683B6859683B68DB681A46F1
:1047A00000F0E6FA7B681B685021184600F0F5FB24
:1047B0002BE07B6818683B6859683B68DB681A46E1
:1047C00000F042FB7B681B686021184600F0E5FBA7
:1047D0001BE07B6818683B6859683B68DB681A46D1
:1047E00000F0C6FA7B681B684021184600F0D5FB34
:1047F0000BE07B681A683B681B681946104600F09E
:10480000CCFB02E000BF00E000BF7B68012283F820
:104810003D207B68002283F83C2000231846103797
:10482000BD4680BD80B483B000AF786000BF0C3758
:10483000BD465DF8047B704780B483B000AF7860FC
:1048400000BF0C37BD465DF8047B704780B483B071
:1048500000AF786000BF0C37BD465DF8047B704741
:1048600080B483B000AF786000BF0C37BD465DF800
:10487000047B704780B483B000AF786000BF0C3712
:10488000BD465DF8047B704780B485B000AF7860AA
:1048900039607B681B68FB607B68344A93420FD0A9
:1048A0007B68B3F1804F0BD07B68314A934207D0CD
:1048B0007B68304A934203D07B682F4A934208D1E9
:1048C000FB6823F07003FB603B685B68FA68134386
:1048D000FB607B68254A93421BD07B68B3F1804F15
:1048E00017D07B68224A934213D07B68214A9342B7
:1048F0000FD07B68204A93420BD07B681F4A9342BB
:1049000007D07B681E4A934203D07B681D4A9342BE
:1049100008D1FB6823F44073FB603B68DB68FA68EE
:104920001343FB60FB6823F080023B685B69134321
:10493000FB607B68FA681A603B689A687B68DA6299
:104940003B681A687B689A627B68084A934203D185
:104950003B681A697B681A637B6801225A6100BF51
:104960001437BD465DF8047B704700BF000001406E
:104970000004004000080040000C004000400140DE
:10498000004401400048014080B487B000AF786027
:1049900039607B681B6A23F001027B681A627B68BE
:1049A0001B6A7B617B685B683B617B689B69FB6022
:1049B000FB6823F07003FB60FB6823F00303FB60DC
:1049C0003B681B68FA681343FB607B6923F00203B2
:1049D0007B613B689B687A6913437B617B681C4AF7
:1049E00093420CD17B6923F008037B613B68DB6851
:1049F0007A6913437B617B6923F004037B617B68E5
:104A0000134A934211D13B6923F480733B613B69A4
:104A100023F400733B613B685B693A6913433B6174
:104A20003B689B693A6913433B617B683A695A600A
:104A30007B68FA689A613B685A687B685A637B684E
:104A40007A691A6200BF1C37BD465DF8047B704767
:104A50000000014080B487B000AF786039607B68A7
:104A60001B6A23F010027B681A627B681B6A7B61F9
:104A70007B685B683B617B689B69FB60FB6823F438
:104A8000E043FB60FB6823F44073FB603B681B68FA
:104A90001B02FA681343FB607B6923F020037B61F0
:104AA0003B689B681B017A6913437B617B681E4AE4
:104AB00093420DD17B6923F080037B613B68DB6807
:104AC0001B017A6913437B617B6923F040037B619F
:104AD0007B68154A934213D13B6923F480633B61A1
:104AE0003B6923F400633B613B685B699B003A6967
:104AF00013433B613B689B699B003A6913433B61ED
:104B00007B683A695A607B68FA689A613B685A68C0
:104B10007B689A637B687A691A6200BF1C37BD465E
:104B20005DF8047B704700BF0000014080B487B08F
:104B300000AF786039607B681B6A23F480727B6801
:104B40001A627B681B6A7B617B685B683B617B6880
:104B5000DB69FB60FB6823F07003FB60FB6823F0FC
:104B60000303FB603B681B68FA681343FB607B69C7
:104B700023F400737B613B689B681B027A691343D3
:104B80007B617B681D4A93420DD17B6923F40063EE
:104B90007B613B68DB681B027A6913437B617B693D
:104BA00023F480637B617B68144A934213D13B6991
:104BB00023F480533B613B6923F400533B613B6822
:104BC0005B691B013A6913433B613B689B691B01AD
:104BD0003A6913433B617B683A695A607B68FA68BB
:104BE000DA613B685A687B68DA637B687A691A62C3
:104BF00000BF1C37BD465DF8047B704700000140D4
:104C000080B487B000AF786039607B681B6A23F49A
:104C100080527B681A627B681B6A3B617B685B68B9
:104C20007B617B68DB69FB60FB6823F4E043FB602E
:104C3000FB6823F44073FB603B681B681B02FA6847
:104C40001343FB603B6923F400533B613B689B6863
:104C50001B033A6913433B617B68104A934209D1B5
:104C60007B6923F480437B613B685B699B017A69C4
:104C700013437B617B687A695A607B68FA68DA6102
:104C80003B685A687B681A647B683A691A6200BF9D
:104C90001C37BD465DF8047B704700BF0000014033
:104CA00080B487B000AFF860B9607A603B60FB68A1
:104CB0001B6A23F00102FB681A62FB689B697B6137
:104CC000FB681B6A3B61FB68244A934213D0FB6874
:104CD000B3F1804F0FD0FB68214A93420BD0FB68A1
:104CE000204A934207D0FB681F4A934203D0FB68D7
:104CF0001E4A934201D1012300E00023002B08D07B
:104D00007B6923F003037B617A697B6813437B61D2
:104D100003E07B6943F001037B617B6923F0F003CF
:104D20007B613B681B01DBB27A6913437B613B69A2
:104D300023F00A033B61BB6803F00A033A6913439B
:104D40003B61FB687A699A61FB683A691A6200BF45
:104D50001C37BD465DF8047B704700BF0000014072
:104D60000004004000080040000C004000400140EA
:104D700080B487B000AFF860B9607A60FB681B6AE6
:104D80007B61FB681B6A23F00102FB681A62FB6807
:104D90009B693B613B6923F0F0033B617B681B012E
:104DA0003A6913433B617B6923F00A037B617A69AB
:104DB000BB6813437B61FB683A699A61FB687A6957
:104DC0001A6200BF1C37BD465DF8047B704780B493
:104DD00087B000AFF860B9607A603B60FB681B6A1F
:104DE00023F01002FB681A62FB689B697B61FB6819
:104DF0001B6A3B617B6923F440737B617B681B0208
:104E00007A6913437B617B6923F470437B613B6860
:104E10001B039BB27A6913437B613B6923F0A003B8
:104E20003B61BB681B0103F0A0033A6913433B617C
:104E3000FB687A699A61FB683A691A6200BF1C379D
:104E4000BD465DF8047B704780B487B000AFF86062
:104E5000B9607A60FB681B6A23F01002FB681A6273
:104E6000FB689B697B61FB681B6A3B617B6923F480
:104E700070437B617B681B037A6913437B613B69E9
:104E800023F0A0033B61BB681B013A6913433B61FC
:104E9000FB687A699A61FB683A691A6200BF1C373D
:104EA000BD465DF8047B704780B487B000AFF86002
:104EB000B9607A603B60FB681B6A23F48072FB6810
:104EC0001A62FB68DB697B61FB681B6A3B617B697B
:104ED00023F003037B617A697B6813437B617B6901
:104EE00023F0F0037B613B681B01DBB27A6913435B
:104EF0007B613B6923F420633B61BB681B0203F4C5
:104F000020633A6913433B61FB687A69DA61FB68A5
:104F10003A691A6200BF1C37BD465DF8047B7047D2
:104F200080B487B000AFF860B9607A603B60FB681E
:104F30001B6A23F48052FB681A62FB68DB697B61A1
:104F4000FB681B6A3B617B6923F440737B617B6870
:104F50001B027A6913437B617B6923F470437B6195
:104F60003B681B039BB27A6913437B613B6923F463
:104F700020433B61BB681B0303F420433A6913439E
:104F80003B61FB687A69DA61FB683A691A6200BFC3
:104F90001C37BD465DF8047B704780B485B000AF18
:104FA000786039607B689B68FB60FB6823F0700366
:104FB000FB603A68FB68134343F00703FB607B68C0
:104FC000FA689A6000BF1437BD465DF8047B7047ED
:104FD00080B487B000AFF860B9607A603B60FB686E
:104FE0009B687B617B6923F47F437B613B681A028A
:104FF0007B681A43BB6813437A6913437B61FB6880
:105000007A699A6000BF1C37BD465DF8047B704723
:1050100080B487B000AFF860B9607A60BB6803F015
:105020001F03012202FA03F37B61FB681A6A7B69A2
:10503000DB431A40FB681A62FB681A6ABB6803F01C
:105040001F03796801FA03F31A43FB681A6200BF71
:105050001C37BD465DF8047B7047000080B485B006
:1050600000AF786039607B6893F83C30012B01D148
:10507000022350E07B68012283F83C207B680222F7
:1050800083F83D207B681B685B68FB607B681B685E
:105090009B68BB60FB6823F07003FB603B681B6888
:1050A000FA681343FB607B681B68FA685A607B6888
:1050B0001B681C4A934218D07B681B68B3F1804F71
:1050C00013D07B681B68184A93420ED07B681B681C
:1050D000164A934209D07B681B68154A934204D054
:1050E0007B681B68134A93420CD1BB6823F0800392
:1050F000BB603B685B68BA681343BB607B681B6836
:10510000BA689A607B68012283F83D207B680022A0
:1051100083F83C20002318461437BD465DF8047B15
:10512000704700BF0000014000040040000800403C
:10513000000C00400040014080B483B000AF7860B4
:1051400000BF0C37BD465DF8047B704780B483B068
:1051500000AF786000BF0C37BD465DF8047B704738
:1051600080B582B000AF78607B68002B01D101234D
:105170003FE07B6893F83D30DBB2002B06D17B68C3
:10518000002283F83C207868FDF70AFD7B68242222
:1051900083F83D207B681B68DA687B681B6822F413
:1051A0000052DA60786800F005F97B681B681A69BC
:1051B0007B681B6822F490421A617B681B685A69FD
:1051C0007B681B6822F02A025A617B681B68DA68D8
:1051D0007B681B6842F40052DA607B6800221A6424
:1051E0007B68202283F83D207B68202283F83E20C4
:1051F000002318460837BD4680BD80B58AB002AF8F
:10520000F860B9603B601346FB8000237B61FB685C
:1052100093F83D30DBB2202B7CD1BB68002B02D051
:10522000FB88002B01D1012375E0FB6893F83C302B
:10523000012B01D102236EE0FB68012283F83C20A0
:10524000FB6800221A64FB68212283F83D20FDF7E9
:105250001FFE7861FB68FA889A84FB68FA88DA8412
:10526000FB689B68B3F5805F08D1FB681B69002B66
:1052700004D10023FB61BB68BB6103E0BB68FB6139
:105280000023BB61FB68002283F83C202AE03B68D6
:1052900000937B6900228021F86800F040F8034603
:1052A000002B01D0032336E0FB69002B0BD1BB6937
:1052B0001B881A46FB681B68C2F308025A60BB6968
:1052C0000233BB6107E0FB691A78FB681B685A6010
:1052D000FB690133FB61FB68DB8C9BB2013B9AB23B
:1052E000FB68DA84FB68DB8C9BB2002BCFD13B6878
:1052F00000937B6900224021F86800F010F8034613
:10530000002B01D0032306E0FB68202283F83D2018
:10531000002300E0022318462037BD4680BD80B53B
:1053200084B000AFF860B9603B601346FB712CE0BD
:10533000BB69B3F1FF3F28D0BB69002B07D0FDF755
:10534000A7FD02463B68D31ABA699A421DD2FB6890
:105350001B68DA68FB681B6822F4D072DA60FB68AD
:105360001B685A69FB681B6822F001025A61FB68DE
:10537000202283F83D20FB68202283F83E20FB6832
:10538000002283F83C2003230FE0FB681B681A68A7
:10539000BB681340BA689A420CBF01230023DBB2FA
:1053A0001A46FB799A42C3D0002318461037BD46EF
:1053B00080BD00002DE9F04F9FB000AFF866FB6E96
:1053C0001B681B6923F44050FB6ED968FB6E1A689A
:1053D00040EA01031361FB6E9A68FB6E1B691A4376
:1053E000FB6E5B691A43FB6EDB6913433B67FB6E25
:1053F0001B68DB6823F4164121F00C01FB6E1A6870
:105400003B6F0B43D360FB6E1B685B6923F44070FA
:10541000FB6E9969FB6E1A6840EA01035361FB6EEB
:105420001A68C54B9A4204D0FB6E1A68C34B9A4265
:1054300003D1FEF7B7FC786702E0FEF79FFC7867C0
:10544000FB6EDB69B3F5004F40F0B6807B6F1C4606
:105450004FF0000522462B46911839645B417B646E
:10546000D7E91023121945EB03034FF000004FF06A
:105470000001D90041EA5271D00002460B461119D1
:1054800039666B417B66FB6E5B681A464FF0000322
:105490009118B9635B41FB63D7E90E23D7E9180183
:1054A000FBF76CFB02460B46A54BA3FB02235B09F3
:1054B0001E017B6F1C464FF0000522462B469118BB
:1054C00039635B417B63D7E90C23121945EB030376
:1054D0004FF000004FF00001D90041EA5271D000B6
:1054E00002460B461119B9656B41FB65FB6E5B68A3
:1054F0001A464FF000039118B9625B41FB62D7E98D
:105500000A23D7E91601FBF739FB02460B468C4B01
:10551000A3FB02135B09642101FB03F3D31ADB0035
:105520003233874AA2FB03235B095B0003F4F87361
:105530001E447B6F18464FF0000102460B4694183C
:105540003C625B417B62D7E90823121841EB0303FD
:105550004FF000044FF00005DD0045EA5275D4001D
:1055600022462B4614183C654B417B65FB6E5B68FD
:105570001A464FF000039118B9615B41FB61D7E90E
:105580000623D7E91401FBF7F9FA02460B466C4BE8
:10559000A3FB02135B09642101FB03F3D31ADB00B5
:1055A0003233674AA2FB03235B0903F00702FB6E59
:1055B0001B6832449A60B9E07B6F1C464FF00005CF
:1055C00022462B46911839615B417B61D7E9042360
:1055D000121945EB03034FF000004FF00001D90012
:1055E00041EA5271D00002460B4612EB040843EB2D
:1055F0000509FB6E5B6818464FF000014FF0000292
:105600004FF000038B0043EA907382004046494606
:10561000FBF7B4FA02460B46494BA3FB02235B0996
:105620001E017B6F18464FF0000102460B4694188E
:10563000BC605B41FB60D7E90223121841EB030316
:105640004FF000044FF00005DD0045EA5275D4002C
:1056500022462B461418BC644B41FB64FB6E5B680E
:1056600018464FF000014FF000024FF000038B008E
:1056700043EA90738200D7E91201FBF77FFA0246F2
:105680000B462F4BA3FB02135B09642101FB03F3C1
:10569000D31A1B0132332A4AA2FB03235B0903F00E
:1056A000F0031E447B6F18464FF0000102460B4684
:1056B00094183C605B417B60D7E90023121841EBF2
:1056C00003034FF000044FF00005DD0045EA52757A
:1056D000D40022462B4612EB000A43EB010BFB6E73
:1056E0005B6818464FF000014FF000024FF00003D6
:1056F0008B0043EA9073820050465946FBF73EFA0E
:1057000002460B460E4BA3FB02135B09642101FB0F
:1057100003F3D31A1B013233094AA2FB03235B09AB
:1057200003F00F02FB6E1B6832449A6000BF7C37A7
:10573000BD46BDE8F08F00BF0010014000140140DD
:105740001F85EB51014B1868704700BF28000020EF
:1057500070B50D4D0D4C641BA4100026A64209D156
:105760000B4D0C4C00F062FC641BA4100026A642FA
:1057700005D170BD55F8043B98470136EEE755F862
:10578000043B98470136F2E7786100087861000829
:10579000786100087C61000802440346934200D10E
:1057A000704703F8011BF9E70CB430B5174B0C1E1A
:1057B0001D689DB008DA8B232B604FF0FF301DB0C1
:1057C000BDE8304002B070474FF40273ADF81430BA
:1057D00014BF04F1FF332346049307934FF6FF737E
:1057E00002900690ADF81630209A21AB02A9284607
:1057F000019300F069F8431CBCBF8B232B60002C85
:10580000DDD0029B00221A70D9E700BF28000020DB
:105810002DE9F0478E689E4282460C4690461F4610
:1058200038D88A8912F4906F32D025680969A5EBBF
:105830000109656905EB450505EBD57501334B4459
:105840006D109D4238BF1D46530531D5294600F0E5
:1058500047FB064650B90C23CAF80030A38943F031
:105860004003A3814FF0FF30BDE8F08721694A462D
:1058700000F0BEFAA38923F4906343F08003A38170
:10588000266165614E44A5EB09052660A5603E468C
:10589000BE4200D93E4632462068414600F0B6FA84
:1058A000A36822689B1B3244A36022600020DBE7D0
:1058B0002A4600F06FFB06460028E1D121695046D8
:1058C00000F0BEFAC7E700002DE9F04F98468B893B
:1058D0001B069DB007460D4614460ED50B6963B9ED
:1058E000402100F0FDFA2860286120B90C233B60BC
:1058F0004FF0FF30D1E040236B6100230993202358
:105900008DF82930CDF80C803023DFF8A8818DF890
:105910002A304FF0010923469A4613F8012B0AB1A9
:10592000252AF9D1BAEB040B0BD05B462246294657
:105930003846FFF76DFF013000F0AA80099A5A44FB
:1059400009929AF80030002B00F0A28000234FF05B
:10595000FF32CDE905230AF1010A049307938DF87C
:1059600053301A935446052214F8011B5148FAF794
:105970003FFC049AD8B9D00644BF20238DF8533099
:10598000110744BF2B238DF853309AF800302A2B8F
:1059900015D0079A544600204FF00A0C214611F802
:1059A000013B303B092B4ED9B0B1079214E0A0EB7C
:1059B000080309FA03F313430493A246D2E7039BB7
:1059C000191D1B680391002BBBBF5B4242F0020212
:1059D00007930793B8BF049223782E2B0CD16378DA
:1059E0002A2B35D1039B1A1D1B680392002BB8BFCD
:1059F0004FF0FF3302340593DFF8C8A0217803226B
:105A00005046FAF7F5FB40B14023A0EB0A0003FA39
:105A100000F0049B03430134049314F8011B26484F
:105A20008DF828100622FAF7E3FB002838D0234B24
:105A30001BBB039B073323F0070308330393099B26
:105A40003344099367E70CFB02320C460120A5E7BB
:105A500000230134059319464FF00A0C204610F834
:105A6000012B303A092A03D9002BC5D00591C3E791
:105A70000CFB012104460123F0E703AB00932A4607
:105A80000F4B04A93846AFF30080421C0646D6D11E
:105A9000AB895B063FF52CAF09981DB0BDE8F08FD0
:105AA00003AB00932A46064B04A9384600F07AF867
:105AB000EBE700BF3C610008466100080000000001
:105AC00011580008426100082DE9F0471646994632
:105AD0008A680B69DDF820809342B8BF13463360B3
